{
  "_format": "hh-sol-artifact-1",
  "contractName": "WavePortal",
  "sourceName": "contracts/WavePortal.sol",
  "abi": [
    {
      "inputs": [],
      "stateMutability": "payable",
      "type": "constructor"
    },
    {
      "anonymous": false,
      "inputs": [
        {
          "indexed": true,
          "internalType": "address",
          "name": "from",
          "type": "address"
        },
        {
          "indexed": false,
          "internalType": "uint256",
          "name": "timestamp",
          "type": "uint256"
        },
        {
          "indexed": false,
          "internalType": "string",
          "name": "message",
          "type": "string"
        }
      ],
      "name": "NewWave",
      "type": "event"
    },
    {
      "inputs": [],
      "name": "deleteMessages",
      "outputs": [],
      "stateMutability": "nonpayable",
      "type": "function"
    },
    {
      "inputs": [],
      "name": "getAllWaves",
      "outputs": [
        {
          "components": [
            {
              "internalType": "address",
              "name": "waver",
              "type": "address"
            },
            {
              "internalType": "string",
              "name": "message",
              "type": "string"
            },
            {
              "internalType": "uint256",
              "name": "timestamp",
              "type": "uint256"
            }
          ],
          "internalType": "struct WavePortal.Wave[]",
          "name": "",
          "type": "tuple[]"
        }
      ],
      "stateMutability": "view",
      "type": "function"
    },
    {
      "inputs": [],
      "name": "getPlaylistNumber",
      "outputs": [
        {
          "internalType": "uint256",
          "name": "",
          "type": "uint256"
        }
      ],
      "stateMutability": "view",
      "type": "function"
    },
    {
      "inputs": [],
      "name": "getTotalWaves",
      "outputs": [
        {
          "internalType": "uint256",
          "name": "",
          "type": "uint256"
        }
      ],
      "stateMutability": "view",
      "type": "function"
    },
    {
      "inputs": [
        {
          "internalType": "address",
          "name": "",
          "type": "address"
        }
      ],
      "name": "lastWavedAt",
      "outputs": [
        {
          "internalType": "uint256",
          "name": "",
          "type": "uint256"
        }
      ],
      "stateMutability": "view",
      "type": "function"
    },
    {
      "inputs": [
        {
          "internalType": "uint256",
          "name": "_songNumber",
          "type": "uint256"
        }
      ],
      "name": "playSong",
      "outputs": [],
      "stateMutability": "nonpayable",
      "type": "function"
    },
    {
      "inputs": [
        {
          "internalType": "string",
          "name": "_message",
          "type": "string"
        }
      ],
      "name": "wave",
      "outputs": [],
      "stateMutability": "nonpayable",
      "type": "function"
    }
  ],
  "bytecode": "0x60806040526200004f6040518060400160405280601f81526020017f4920616d206120636f6e747261637420616e64204920616d20736d61727421008152506200007760201b620007631760201c565b606444426200005f9190620001c4565b6200006b919062000261565b60018190555062000308565b62000117816040516024016200008e919062000184565b6040516020818303038152906040527f41304fac000000000000000000000000000000000000000000000000000000007bffffffffffffffffffffffffffffffffffffffffffffffffffffffff19166020820180517bffffffffffffffffffffffffffffffffffffffffffffffffffffffff83818316178352505050506200011a60201b60201c565b50565b60008151905060006a636f6e736f6c652e6c6f679050602083016000808483855afa5050505050565b60006200015082620001a8565b6200015c8185620001b3565b93506200016e8185602086016200022b565b6200017981620002f7565b840191505092915050565b60006020820190508181036000830152620001a0818462000143565b905092915050565b600081519050919050565b600082825260208201905092915050565b6000620001d18262000221565b9150620001de8362000221565b9250827fffffffffffffffffffffffffffffffffffffffffffffffffffffffffffffffff0382111562000216576200021562000299565b5b828201905092915050565b6000819050919050565b60005b838110156200024b5780820151818401526020810190506200022e565b838111156200025b576000848401525b50505050565b60006200026e8262000221565b91506200027b8362000221565b9250826200028e576200028d620002c8565b5b828206905092915050565b7f4e487b7100000000000000000000000000000000000000000000000000000000600052601160045260246000fd5b7f4e487b7100000000000000000000000000000000000000000000000000000000600052601260045260246000fd5b6000601f19601f8301169050919050565b61151180620003186000396000f3fe608060405234801561001057600080fd5b506004361061007d5760003560e01c806394b233dd1161005b57806394b233dd146100c45780639a2cdc08146100e2578063a42a466314610100578063bd43a908146101305761007d565b80633200f49414610082578063449d46c01461008c578063759950e6146100a8575b600080fd5b61008a61014e565b005b6100a660048036038101906100a19190610cb3565b61015e565b005b6100c260048036038101906100bd9190610cf4565b610518565b005b6100cc610564565b6040516100d9919061118c565b60405180910390f35b6100ea6105af565b6040516100f7919061118c565b60405180910390f35b61011a60048036038101906101159190610c8a565b6105fa565b604051610127919061118c565b60405180910390f35b610138610612565b6040516101459190611005565b60405180910390f35b6003600061015c9190610a9b565b565b42601e600460003373ffffffffffffffffffffffffffffffffffffffff1673ffffffffffffffffffffffffffffffffffffffff168152602001908152602001600020546101ab91906112a9565b106101eb576040517f08c379a00000000000000000000000000000000000000000000000000000000081526004016101e29061114c565b60405180910390fd5b42600460003373ffffffffffffffffffffffffffffffffffffffff1673ffffffffffffffffffffffffffffffffffffffff16815260200190815260200160002081905550600160008082825461024191906112a9565b925050819055506102886040518060400160405280601681526020017f257320776176656420772f206d6573736167652025730000000000000000000081525033836107fc565b600360405180606001604052803373ffffffffffffffffffffffffffffffffffffffff16815260200183815260200142815250908060018154018082558091505060019003906000526020600020906003020160009091909190915060008201518160000160006101000a81548173ffffffffffffffffffffffffffffffffffffffff021916908373ffffffffffffffffffffffffffffffffffffffff1602179055506020820151816001019080519060200190610347929190610abf565b506040820151816002015550506064600154424461036591906112a9565b61036f91906112a9565b61037991906113af565b6001819055506032600154116104c5576103c86040518060400160405280600781526020017f257320776f6e21000000000000000000000000000000000000000000000000008152503361089b565b6000655af3107a4000905047811115610416576040517f08c379a000000000000000000000000000000000000000000000000000000000815260040161040d9061112c565b60405180910390fd5b60003373ffffffffffffffffffffffffffffffffffffffff168260405161043c90610ff0565b60006040518083038185875af1925050503d8060008114610479576040519150601f19603f3d011682016040523d82523d6000602084013e61047e565b606091505b50509050806104c2576040517f08c379a00000000000000000000000000000000000000000000000000000000081526004016104b99061116c565b60405180910390fd5b50505b3373ffffffffffffffffffffffffffffffffffffffff167f5f7e16dc676677766a70e9c5628aa6c54ddb8b6e5188e2ae1e1f17f1ffbea716428360405161050d9291906111a7565b60405180910390a250565b806002819055506105616040518060400160405280601281526020017f2573206861732073656c6563746564202564000000000000000000000000000081525033600254610937565b50565b60006105a76040518060400160405280601681526020017f596f75206172652067726f6f76696e6720746f202564000000000000000000008152506002546109d6565b600254905090565b60006105f26040518060400160405280601681526020017f5765206861766520256420746f74616c207761766573000000000000000000008152506000546109d6565b600054905090565b60046020528060005260406000206000915090505481565b60606003805480602002602001604051908101604052809291908181526020016000905b8282101561075a57838290600052602060002090600302016040518060600160405290816000820160009054906101000a900473ffffffffffffffffffffffffffffffffffffffff1673ffffffffffffffffffffffffffffffffffffffff1673ffffffffffffffffffffffffffffffffffffffff1681526020016001820180546106bf9061137d565b80601f01602080910402602001604051908101604052809291908181526020018280546106eb9061137d565b80156107385780601f1061070d57610100808354040283529160200191610738565b820191906000526020600020905b81548152906001019060200180831161071b57829003601f168201915b5050505050815260200160028201548152505081526020019060010190610636565b50505050905090565b6107f9816040516024016107779190611027565b6040516020818303038152906040527f41304fac000000000000000000000000000000000000000000000000000000007bffffffffffffffffffffffffffffffffffffffffffffffffffffffff19166020820180517bffffffffffffffffffffffffffffffffffffffffffffffffffffffff8381831617835250505050610a72565b50565b61089683838360405160240161081493929190611079565b6040516020818303038152906040527fe0e9ad4f000000000000000000000000000000000000000000000000000000007bffffffffffffffffffffffffffffffffffffffffffffffffffffffff19166020820180517bffffffffffffffffffffffffffffffffffffffffffffffffffffffff8381831617835250505050610a72565b505050565b61093382826040516024016108b1929190611049565b6040516020818303038152906040527f319af333000000000000000000000000000000000000000000000000000000007bffffffffffffffffffffffffffffffffffffffffffffffffffffffff19166020820180517bffffffffffffffffffffffffffffffffffffffffffffffffffffffff8381831617835250505050610a72565b5050565b6109d183838360405160240161094f939291906110be565b6040516020818303038152906040527f07c81217000000000000000000000000000000000000000000000000000000007bffffffffffffffffffffffffffffffffffffffffffffffffffffffff19166020820180517bffffffffffffffffffffffffffffffffffffffffffffffffffffffff8381831617835250505050610a72565b505050565b610a6e82826040516024016109ec9291906110fc565b6040516020818303038152906040527f9710a9d0000000000000000000000000000000000000000000000000000000007bffffffffffffffffffffffffffffffffffffffffffffffffffffffff19166020820180517bffffffffffffffffffffffffffffffffffffffffffffffffffffffff8381831617835250505050610a72565b5050565b60008151905060006a636f6e736f6c652e6c6f679050602083016000808483855afa5050505050565b5080546000825560030290600052602060002090810190610abc9190610b45565b50565b828054610acb9061137d565b90600052602060002090601f016020900481019282610aed5760008555610b34565b82601f10610b0657805160ff1916838001178555610b34565b82800160010185558215610b34579182015b82811115610b33578251825591602001919060010190610b18565b5b509050610b419190610b9b565b5090565b5b80821115610b9757600080820160006101000a81549073ffffffffffffffffffffffffffffffffffffffff0219169055600182016000610b869190610bb8565b600282016000905550600301610b46565b5090565b5b80821115610bb4576000816000905550600101610b9c565b5090565b508054610bc49061137d565b6000825580601f10610bd65750610bf5565b601f016020900490600052602060002090810190610bf49190610b9b565b5b50565b6000610c0b610c0684611208565b6111d7565b905082815260208101848484011115610c2357600080fd5b610c2e84828561133b565b509392505050565b600081359050610c45816114ad565b92915050565b600082601f830112610c5c57600080fd5b8135610c6c848260208601610bf8565b91505092915050565b600081359050610c84816114c4565b92915050565b600060208284031215610c9c57600080fd5b6000610caa84828501610c36565b91505092915050565b600060208284031215610cc557600080fd5b600082013567ffffffffffffffff811115610cdf57600080fd5b610ceb84828501610c4b565b91505092915050565b600060208284031215610d0657600080fd5b6000610d1484828501610c75565b91505092915050565b6000610d298383610f82565b905092915050565b610d3a816112ff565b82525050565b610d49816112ff565b82525050565b6000610d5a82611248565b610d64818561126b565b935083602082028501610d7685611238565b8060005b85811015610db25784840389528151610d938582610d1d565b9450610d9e8361125e565b925060208a01995050600181019050610d7a565b50829750879550505050505092915050565b6000610dcf82611253565b610dd98185611287565b9350610de981856020860161134a565b610df28161149c565b840191505092915050565b6000610e0882611253565b610e128185611298565b9350610e2281856020860161134a565b610e2b8161149c565b840191505092915050565b6000610e43603483611298565b91507f547279696e6720746f207769746864726177206d6f7265206d6f6e657920746860008301527f616e2074686520636f6e7472616374206861732e0000000000000000000000006020830152604082019050919050565b6000610ea9602983611298565b91507f4d7573742077616974203330207365636f6e6473206265666f7265207761766960008301527f6e6720616761696e2e00000000000000000000000000000000000000000000006020830152604082019050919050565b6000610f0f602683611298565b91507f4661696c656420746f207769746864726177206d6f6e65792066726f6d20636f60008301527f6e747261637400000000000000000000000000000000000000000000000000006020830152604082019050919050565b6000610f7560008361127c565b9150600082019050919050565b6000606083016000830151610f9a6000860182610d31565b5060208301518482036020860152610fb28282610dc4565b9150506040830151610fc76040860182610fd2565b508091505092915050565b610fdb81611331565b82525050565b610fea81611331565b82525050565b6000610ffb82610f68565b9150819050919050565b6000602082019050818103600083015261101f8184610d4f565b905092915050565b600060208201905081810360008301526110418184610dfd565b905092915050565b600060408201905081810360008301526110638185610dfd565b90506110726020830184610d40565b9392505050565b600060608201905081810360008301526110938186610dfd565b90506110a26020830185610d40565b81810360408301526110b48184610dfd565b9050949350505050565b600060608201905081810360008301526110d88186610dfd565b90506110e76020830185610d40565b6110f46040830184610fe1565b949350505050565b600060408201905081810360008301526111168185610dfd565b90506111256020830184610fe1565b9392505050565b6000602082019050818103600083015261114581610e36565b9050919050565b6000602082019050818103600083015261116581610e9c565b9050919050565b6000602082019050818103600083015261118581610f02565b9050919050565b60006020820190506111a16000830184610fe1565b92915050565b60006040820190506111bc6000830185610fe1565b81810360208301526111ce8184610dfd565b90509392505050565b6000604051905081810181811067ffffffffffffffff821117156111fe576111fd61146d565b5b8060405250919050565b600067ffffffffffffffff8211156112235761122261146d565b5b601f19601f8301169050602081019050919050565b6000819050602082019050919050565b600081519050919050565b600081519050919050565b6000602082019050919050565b600082825260208201905092915050565b600081905092915050565b600082825260208201905092915050565b600082825260208201905092915050565b60006112b482611331565b91506112bf83611331565b9250827fffffffffffffffffffffffffffffffffffffffffffffffffffffffffffffffff038211156112f4576112f36113e0565b5b828201905092915050565b600061130a82611311565b9050919050565b600073ffffffffffffffffffffffffffffffffffffffff82169050919050565b6000819050919050565b82818337600083830152505050565b60005b8381101561136857808201518184015260208101905061134d565b83811115611377576000848401525b50505050565b6000600282049050600182168061139557607f821691505b602082108114156113a9576113a861143e565b5b50919050565b60006113ba82611331565b91506113c583611331565b9250826113d5576113d461140f565b5b828206905092915050565b7f4e487b7100000000000000000000000000000000000000000000000000000000600052601160045260246000fd5b7f4e487b7100000000000000000000000000000000000000000000000000000000600052601260045260246000fd5b7f4e487b7100000000000000000000000000000000000000000000000000000000600052602260045260246000fd5b7f4e487b7100000000000000000000000000000000000000000000000000000000600052604160045260246000fd5b6000601f19601f8301169050919050565b6114b6816112ff565b81146114c157600080fd5b50565b6114cd81611331565b81146114d857600080fd5b5056fea264697066735822122065bdf103d741f15d9e662d9792aa15919b20119a8b672605f6ea9c70ea4fbe6264736f6c63430008000033",
  "linkReferences": {},
  "deployedLinkReferences": {}
}